{
  "_format": "hh-sol-artifact-1",
  "contractName": "ECOToken",
  "sourceName": "contracts/ECOToken.sol",
  "abi": [
    {
      "inputs": [],
      "stateMutability": "nonpayable",
      "type": "constructor"
    },
    {
      "anonymous": false,
      "inputs": [
        {
          "indexed": true,
          "internalType": "address",
          "name": "owner",
          "type": "address"
        },
        {
          "indexed": true,
          "internalType": "address",
          "name": "spender",
          "type": "address"
        },
        {
          "indexed": false,
          "internalType": "uint256",
          "name": "value",
          "type": "uint256"
        }
      ],
      "name": "Approval",
      "type": "event"
    },
    {
      "anonymous": false,
      "inputs": [
        {
          "indexed": true,
          "internalType": "bytes32",
          "name": "role",
          "type": "bytes32"
        },
        {
          "indexed": true,
          "internalType": "bytes32",
          "name": "previousAdminRole",
          "type": "bytes32"
        },
        {
          "indexed": true,
          "internalType": "bytes32",
          "name": "newAdminRole",
          "type": "bytes32"
        }
      ],
      "name": "RoleAdminChanged",
      "type": "event"
    },
    {
      "anonymous": false,
      "inputs": [
        {
          "indexed": true,
          "internalType": "bytes32",
          "name": "role",
          "type": "bytes32"
        },
        {
          "indexed": true,
          "internalType": "address",
          "name": "account",
          "type": "address"
        },
        {
          "indexed": true,
          "internalType": "address",
          "name": "sender",
          "type": "address"
        }
      ],
      "name": "RoleGranted",
      "type": "event"
    },
    {
      "anonymous": false,
      "inputs": [
        {
          "indexed": true,
          "internalType": "bytes32",
          "name": "role",
          "type": "bytes32"
        },
        {
          "indexed": true,
          "internalType": "address",
          "name": "account",
          "type": "address"
        },
        {
          "indexed": true,
          "internalType": "address",
          "name": "sender",
          "type": "address"
        }
      ],
      "name": "RoleRevoked",
      "type": "event"
    },
    {
      "anonymous": false,
      "inputs": [
        {
          "indexed": true,
          "internalType": "address",
          "name": "from",
          "type": "address"
        },
        {
          "indexed": true,
          "internalType": "address",
          "name": "to",
          "type": "address"
        },
        {
          "indexed": false,
          "internalType": "uint256",
          "name": "value",
          "type": "uint256"
        }
      ],
      "name": "Transfer",
      "type": "event"
    },
    {
      "inputs": [],
      "name": "BURNER_ROLE",
      "outputs": [
        {
          "internalType": "bytes32",
          "name": "",
          "type": "bytes32"
        }
      ],
      "stateMutability": "view",
      "type": "function"
    },
    {
      "inputs": [],
      "name": "DEFAULT_ADMIN_ROLE",
      "outputs": [
        {
          "internalType": "bytes32",
          "name": "",
          "type": "bytes32"
        }
      ],
      "stateMutability": "view",
      "type": "function"
    },
    {
      "inputs": [],
      "name": "MINTER_ROLE",
      "outputs": [
        {
          "internalType": "bytes32",
          "name": "",
          "type": "bytes32"
        }
      ],
      "stateMutability": "view",
      "type": "function"
    },
    {
      "inputs": [
        {
          "internalType": "address",
          "name": "owner",
          "type": "address"
        },
        {
          "internalType": "address",
          "name": "spender",
          "type": "address"
        }
      ],
      "name": "allowance",
      "outputs": [
        {
          "internalType": "uint256",
          "name": "",
          "type": "uint256"
        }
      ],
      "stateMutability": "view",
      "type": "function"
    },
    {
      "inputs": [
        {
          "internalType": "address",
          "name": "spender",
          "type": "address"
        },
        {
          "internalType": "uint256",
          "name": "amount",
          "type": "uint256"
        }
      ],
      "name": "approve",
      "outputs": [
        {
          "internalType": "bool",
          "name": "",
          "type": "bool"
        }
      ],
      "stateMutability": "nonpayable",
      "type": "function"
    },
    {
      "inputs": [
        {
          "internalType": "address",
          "name": "account",
          "type": "address"
        }
      ],
      "name": "balanceOf",
      "outputs": [
        {
          "internalType": "uint256",
          "name": "",
          "type": "uint256"
        }
      ],
      "stateMutability": "view",
      "type": "function"
    },
    {
      "inputs": [
        {
          "internalType": "address",
          "name": "from",
          "type": "address"
        },
        {
          "internalType": "uint256",
          "name": "amount",
          "type": "uint256"
        }
      ],
      "name": "burn",
      "outputs": [],
      "stateMutability": "nonpayable",
      "type": "function"
    },
    {
      "inputs": [],
      "name": "decimals",
      "outputs": [
        {
          "internalType": "uint8",
          "name": "",
          "type": "uint8"
        }
      ],
      "stateMutability": "view",
      "type": "function"
    },
    {
      "inputs": [
        {
          "internalType": "address",
          "name": "spender",
          "type": "address"
        },
        {
          "internalType": "uint256",
          "name": "subtractedValue",
          "type": "uint256"
        }
      ],
      "name": "decreaseAllowance",
      "outputs": [
        {
          "internalType": "bool",
          "name": "",
          "type": "bool"
        }
      ],
      "stateMutability": "nonpayable",
      "type": "function"
    },
    {
      "inputs": [
        {
          "internalType": "bytes32",
          "name": "role",
          "type": "bytes32"
        }
      ],
      "name": "getRoleAdmin",
      "outputs": [
        {
          "internalType": "bytes32",
          "name": "",
          "type": "bytes32"
        }
      ],
      "stateMutability": "view",
      "type": "function"
    },
    {
      "inputs": [
        {
          "internalType": "bytes32",
          "name": "role",
          "type": "bytes32"
        },
        {
          "internalType": "address",
          "name": "account",
          "type": "address"
        }
      ],
      "name": "grantRole",
      "outputs": [],
      "stateMutability": "nonpayable",
      "type": "function"
    },
    {
      "inputs": [
        {
          "internalType": "bytes32",
          "name": "role",
          "type": "bytes32"
        },
        {
          "internalType": "address",
          "name": "account",
          "type": "address"
        }
      ],
      "name": "hasRole",
      "outputs": [
        {
          "internalType": "bool",
          "name": "",
          "type": "bool"
        }
      ],
      "stateMutability": "view",
      "type": "function"
    },
    {
      "inputs": [
        {
          "internalType": "address",
          "name": "spender",
          "type": "address"
        },
        {
          "internalType": "uint256",
          "name": "addedValue",
          "type": "uint256"
        }
      ],
      "name": "increaseAllowance",
      "outputs": [
        {
          "internalType": "bool",
          "name": "",
          "type": "bool"
        }
      ],
      "stateMutability": "nonpayable",
      "type": "function"
    },
    {
      "inputs": [
        {
          "internalType": "address",
          "name": "to",
          "type": "address"
        },
        {
          "internalType": "uint256",
          "name": "amount",
          "type": "uint256"
        }
      ],
      "name": "mint",
      "outputs": [],
      "stateMutability": "nonpayable",
      "type": "function"
    },
    {
      "inputs": [],
      "name": "name",
      "outputs": [
        {
          "internalType": "string",
          "name": "",
          "type": "string"
        }
      ],
      "stateMutability": "view",
      "type": "function"
    },
    {
      "inputs": [
        {
          "internalType": "bytes32",
          "name": "role",
          "type": "bytes32"
        },
        {
          "internalType": "address",
          "name": "account",
          "type": "address"
        }
      ],
      "name": "renounceRole",
      "outputs": [],
      "stateMutability": "nonpayable",
      "type": "function"
    },
    {
      "inputs": [
        {
          "internalType": "bytes32",
          "name": "role",
          "type": "bytes32"
        },
        {
          "internalType": "address",
          "name": "account",
          "type": "address"
        }
      ],
      "name": "revokeRole",
      "outputs": [],
      "stateMutability": "nonpayable",
      "type": "function"
    },
    {
      "inputs": [
        {
          "internalType": "bytes4",
          "name": "interfaceId",
          "type": "bytes4"
        }
      ],
      "name": "supportsInterface",
      "outputs": [
        {
          "internalType": "bool",
          "name": "",
          "type": "bool"
        }
      ],
      "stateMutability": "view",
      "type": "function"
    },
    {
      "inputs": [],
      "name": "symbol",
      "outputs": [
        {
          "internalType": "string",
          "name": "",
          "type": "string"
        }
      ],
      "stateMutability": "view",
      "type": "function"
    },
    {
      "inputs": [],
      "name": "totalSupply",
      "outputs": [
        {
          "internalType": "uint256",
          "name": "",
          "type": "uint256"
        }
      ],
      "stateMutability": "view",
      "type": "function"
    },
    {
      "inputs": [
        {
          "internalType": "address",
          "name": "to",
          "type": "address"
        },
        {
          "internalType": "uint256",
          "name": "amount",
          "type": "uint256"
        }
      ],
      "name": "transfer",
      "outputs": [
        {
          "internalType": "bool",
          "name": "",
          "type": "bool"
        }
      ],
      "stateMutability": "nonpayable",
      "type": "function"
    },
    {
      "inputs": [
        {
          "internalType": "address",
          "name": "from",
          "type": "address"
        },
        {
          "internalType": "address",
          "name": "to",
          "type": "address"
        },
        {
          "internalType": "uint256",
          "name": "amount",
          "type": "uint256"
        }
      ],
      "name": "transferFrom",
      "outputs": [
        {
          "internalType": "bool",
          "name": "",
          "type": "bool"
        }
      ],
      "stateMutability": "nonpayable",
      "type": "function"
    }
  ],
  "bytecode": "0x60806040523480156200001157600080fd5b506040518060400160405280601181526020017f45636f467269656e646c7920546f6b656e0000000000000000000000000000008152506040518060400160405280600381526020017f45434f000000000000000000000000000000000000000000000000000000000081525081600390816200008f9190620004b4565b508060049081620000a19190620004b4565b505050620000b96000801b33620000bf60201b60201c565b6200059b565b620000d18282620000d560201b60201c565b5050565b620000e78282620001c760201b60201c565b620001c35760016005600084815260200190815260200160002060000160008373ffffffffffffffffffffffffffffffffffffffff1673ffffffffffffffffffffffffffffffffffffffff16815260200190815260200160002060006101000a81548160ff021916908315150217905550620001686200023260201b60201c565b73ffffffffffffffffffffffffffffffffffffffff168173ffffffffffffffffffffffffffffffffffffffff16837f2f8788117e7eff1d82e926ec794901d17c78024a50270940304540a733656f0d60405160405180910390a45b5050565b60006005600084815260200190815260200160002060000160008373ffffffffffffffffffffffffffffffffffffffff1673ffffffffffffffffffffffffffffffffffffffff16815260200190815260200160002060009054906101000a900460ff16905092915050565b600033905090565b600081519050919050565b7f4e487b7100000000000000000000000000000000000000000000000000000000600052604160045260246000fd5b7f4e487b7100000000000000000000000000000000000000000000000000000000600052602260045260246000fd5b60006002820490506001821680620002bc57607f821691505b602082108103620002d257620002d162000274565b5b50919050565b60008190508160005260206000209050919050565b60006020601f8301049050919050565b600082821b905092915050565b6000600883026200033c7fffffffffffffffffffffffffffffffffffffffffffffffffffffffffffffffff82620002fd565b620003488683620002fd565b95508019841693508086168417925050509392505050565b6000819050919050565b6000819050919050565b6000620003956200038f620003898462000360565b6200036a565b62000360565b9050919050565b6000819050919050565b620003b18362000374565b620003c9620003c0826200039c565b8484546200030a565b825550505050565b600090565b620003e0620003d1565b620003ed818484620003a6565b505050565b5b81811015620004155762000409600082620003d6565b600181019050620003f3565b5050565b601f82111562000464576200042e81620002d8565b6200043984620002ed565b8101602085101562000449578190505b620004616200045885620002ed565b830182620003f2565b50505b505050565b600082821c905092915050565b6000620004896000198460080262000469565b1980831691505092915050565b6000620004a4838362000476565b9150826002028217905092915050565b620004bf826200023a565b67ffffffffffffffff811115620004db57620004da62000245565b5b620004e78254620002a3565b620004f482828562000419565b600060209050601f8311600181146200052c576000841562000517578287015190505b62000523858262000496565b86555062000593565b601f1984166200053c86620002d8565b60005b8281101562000566578489015182556001820191506020850194506020810190506200053f565b8683101562000586578489015162000582601f89168262000476565b8355505b6001600288020188555050505b505050505050565b61262680620005ab6000396000f3fe608060405234801561001057600080fd5b50600436106101425760003560e01c806340c10f19116100b8578063a217fddf1161007c578063a217fddf1461039d578063a457c2d7146103bb578063a9059cbb146103eb578063d53913931461041b578063d547741f14610439578063dd62ed3e1461045557610142565b806340c10f19146102e757806370a082311461030357806391d148541461033357806395d89b41146103635780639dc29fac1461038157610142565b8063248a9ca31161010a578063248a9ca314610213578063282c51f3146102435780632f2ff15d14610261578063313ce5671461027d57806336568abe1461029b57806339509351146102b757610142565b806301ffc9a71461014757806306fdde0314610177578063095ea7b31461019557806318160ddd146101c557806323b872dd146101e3575b600080fd5b610161600480360381019061015c9190611841565b610485565b60405161016e9190611889565b60405180910390f35b61017f6104ff565b60405161018c9190611934565b60405180910390f35b6101af60048036038101906101aa91906119ea565b610591565b6040516101bc9190611889565b60405180910390f35b6101cd6105b4565b6040516101da9190611a39565b60405180910390f35b6101fd60048036038101906101f89190611a54565b6105be565b60405161020a9190611889565b60405180910390f35b61022d60048036038101906102289190611add565b6105ed565b60405161023a9190611b19565b60405180910390f35b61024b61060d565b6040516102589190611b19565b60405180910390f35b61027b60048036038101906102769190611b34565b610631565b005b610285610652565b6040516102929190611b90565b60405180910390f35b6102b560048036038101906102b09190611b34565b61065b565b005b6102d160048036038101906102cc91906119ea565b6106de565b6040516102de9190611889565b60405180910390f35b61030160048036038101906102fc91906119ea565b610715565b005b61031d60048036038101906103189190611bab565b61078c565b60405161032a9190611a39565b60405180910390f35b61034d60048036038101906103489190611b34565b6107d4565b60405161035a9190611889565b60405180910390f35b61036b61083f565b6040516103789190611934565b60405180910390f35b61039b600480360381019061039691906119ea565b6108d1565b005b6103a5610948565b6040516103b29190611b19565b60405180910390f35b6103d560048036038101906103d091906119ea565b61094f565b6040516103e29190611889565b60405180910390f35b610405600480360381019061040091906119ea565b6109c6565b6040516104129190611889565b60405180910390f35b6104236109e9565b6040516104309190611b19565b60405180910390f35b610453600480360381019061044e9190611b34565b610a0d565b005b61046f600480360381019061046a9190611bd8565b610a2e565b60405161047c9190611a39565b60405180910390f35b60007f7965db0b000000000000000000000000000000000000000000000000000000007bffffffffffffffffffffffffffffffffffffffffffffffffffffffff1916827bffffffffffffffffffffffffffffffffffffffffffffffffffffffff191614806104f857506104f782610ab5565b5b9050919050565b60606003805461050e90611c47565b80601f016020809104026020016040519081016040528092919081815260200182805461053a90611c47565b80156105875780601f1061055c57610100808354040283529160200191610587565b820191906000526020600020905b81548152906001019060200180831161056a57829003601f168201915b5050505050905090565b60008061059c610b1f565b90506105a9818585610b27565b600191505092915050565b6000600254905090565b6000806105c9610b1f565b90506105d6858285610cf0565b6105e1858585610d7c565b60019150509392505050565b600060056000838152602001908152602001600020600101549050919050565b7f3c11d16cbaffd01df69ce1c404f6340ee057498f5f00246190ea54220576a84881565b61063a826105ed565b61064381610ff2565b61064d8383611006565b505050565b60006012905090565b610663610b1f565b73ffffffffffffffffffffffffffffffffffffffff168173ffffffffffffffffffffffffffffffffffffffff16146106d0576040517f08c379a00000000000000000000000000000000000000000000000000000000081526004016106c790611cea565b60405180910390fd5b6106da82826110e7565b5050565b6000806106e9610b1f565b905061070a8185856106fb8589610a2e565b6107059190611d39565b610b27565b600191505092915050565b61073f7f9f2df0fed2c77648de5860a4cc508cd0818c85b8b8a1ab4ceeef8d981c8956a6336107d4565b61077e576040517f08c379a000000000000000000000000000000000000000000000000000000000815260040161077590611db9565b60405180910390fd5b61078882826111c9565b5050565b60008060008373ffffffffffffffffffffffffffffffffffffffff1673ffffffffffffffffffffffffffffffffffffffff168152602001908152602001600020549050919050565b60006005600084815260200190815260200160002060000160008373ffffffffffffffffffffffffffffffffffffffff1673ffffffffffffffffffffffffffffffffffffffff16815260200190815260200160002060009054906101000a900460ff16905092915050565b60606004805461084e90611c47565b80601f016020809104026020016040519081016040528092919081815260200182805461087a90611c47565b80156108c75780601f1061089c576101008083540402835291602001916108c7565b820191906000526020600020905b8154815290600101906020018083116108aa57829003601f168201915b5050505050905090565b6108fb7f3c11d16cbaffd01df69ce1c404f6340ee057498f5f00246190ea54220576a848336107d4565b61093a576040517f08c379a000000000000000000000000000000000000000000000000000000000815260040161093190611e25565b60405180910390fd5b610944828261131f565b5050565b6000801b81565b60008061095a610b1f565b905060006109688286610a2e565b9050838110156109ad576040517f08c379a00000000000000000000000000000000000000000000000000000000081526004016109a490611eb7565b60405180910390fd5b6109ba8286868403610b27565b60019250505092915050565b6000806109d1610b1f565b90506109de818585610d7c565b600191505092915050565b7f9f2df0fed2c77648de5860a4cc508cd0818c85b8b8a1ab4ceeef8d981c8956a681565b610a16826105ed565b610a1f81610ff2565b610a2983836110e7565b505050565b6000600160008473ffffffffffffffffffffffffffffffffffffffff1673ffffffffffffffffffffffffffffffffffffffff16815260200190815260200160002060008373ffffffffffffffffffffffffffffffffffffffff1673ffffffffffffffffffffffffffffffffffffffff16815260200190815260200160002054905092915050565b60007f01ffc9a7000000000000000000000000000000000000000000000000000000007bffffffffffffffffffffffffffffffffffffffffffffffffffffffff1916827bffffffffffffffffffffffffffffffffffffffffffffffffffffffff1916149050919050565b600033905090565b600073ffffffffffffffffffffffffffffffffffffffff168373ffffffffffffffffffffffffffffffffffffffff1603610b96576040517f08c379a0000000000000000000000000000000000000000000000000000000008152600401610b8d90611f49565b60405180910390fd5b600073ffffffffffffffffffffffffffffffffffffffff168273ffffffffffffffffffffffffffffffffffffffff1603610c05576040517f08c379a0000000000000000000000000000000000000000000000000000000008152600401610bfc90611fdb565b60405180910390fd5b80600160008573ffffffffffffffffffffffffffffffffffffffff1673ffffffffffffffffffffffffffffffffffffffff16815260200190815260200160002060008473ffffffffffffffffffffffffffffffffffffffff1673ffffffffffffffffffffffffffffffffffffffff168152602001908152602001600020819055508173ffffffffffffffffffffffffffffffffffffffff168373ffffffffffffffffffffffffffffffffffffffff167f8c5be1e5ebec7d5bd14f71427d1e84f3dd0314c0f7b2291e5b200ac8c7c3b92583604051610ce39190611a39565b60405180910390a3505050565b6000610cfc8484610a2e565b90507fffffffffffffffffffffffffffffffffffffffffffffffffffffffffffffffff8114610d765781811015610d68576040517f08c379a0000000000000000000000000000000000000000000000000000000008152600401610d5f90612047565b60405180910390fd5b610d758484848403610b27565b5b50505050565b600073ffffffffffffffffffffffffffffffffffffffff168373ffffffffffffffffffffffffffffffffffffffff1603610deb576040517f08c379a0000000000000000000000000000000000000000000000000000000008152600401610de2906120d9565b60405180910390fd5b600073ffffffffffffffffffffffffffffffffffffffff168273ffffffffffffffffffffffffffffffffffffffff1603610e5a576040517f08c379a0000000000000000000000000000000000000000000000000000000008152600401610e519061216b565b60405180910390fd5b610e658383836114ec565b60008060008573ffffffffffffffffffffffffffffffffffffffff1673ffffffffffffffffffffffffffffffffffffffff16815260200190815260200160002054905081811015610eeb576040517f08c379a0000000000000000000000000000000000000000000000000000000008152600401610ee2906121fd565b60405180910390fd5b8181036000808673ffffffffffffffffffffffffffffffffffffffff1673ffffffffffffffffffffffffffffffffffffffff16815260200190815260200160002081905550816000808573ffffffffffffffffffffffffffffffffffffffff1673ffffffffffffffffffffffffffffffffffffffff168152602001908152602001600020600082825401925050819055508273ffffffffffffffffffffffffffffffffffffffff168473ffffffffffffffffffffffffffffffffffffffff167fddf252ad1be2c89b69c2b068fc378daa952ba7f163c4a11628f55a4df523b3ef84604051610fd99190611a39565b60405180910390a3610fec8484846114f1565b50505050565b61100381610ffe610b1f565b6114f6565b50565b61101082826107d4565b6110e35760016005600084815260200190815260200160002060000160008373ffffffffffffffffffffffffffffffffffffffff1673ffffffffffffffffffffffffffffffffffffffff16815260200190815260200160002060006101000a81548160ff021916908315150217905550611088610b1f565b73ffffffffffffffffffffffffffffffffffffffff168173ffffffffffffffffffffffffffffffffffffffff16837f2f8788117e7eff1d82e926ec794901d17c78024a50270940304540a733656f0d60405160405180910390a45b5050565b6110f182826107d4565b156111c55760006005600084815260200190815260200160002060000160008373ffffffffffffffffffffffffffffffffffffffff1673ffffffffffffffffffffffffffffffffffffffff16815260200190815260200160002060006101000a81548160ff02191690831515021790555061116a610b1f565b73ffffffffffffffffffffffffffffffffffffffff168173ffffffffffffffffffffffffffffffffffffffff16837ff6391f5c32d9c69d2a47ea670b442974b53935d1edc7fd64eb21e047a839171b60405160405180910390a45b5050565b600073ffffffffffffffffffffffffffffffffffffffff168273ffffffffffffffffffffffffffffffffffffffff1603611238576040517f08c379a000000000000000000000000000000000000000000000000000000000815260040161122f90612269565b60405180910390fd5b611244600083836114ec565b80600260008282546112569190611d39565b92505081905550806000808473ffffffffffffffffffffffffffffffffffffffff1673ffffffffffffffffffffffffffffffffffffffff168152602001908152602001600020600082825401925050819055508173ffffffffffffffffffffffffffffffffffffffff16600073ffffffffffffffffffffffffffffffffffffffff167fddf252ad1be2c89b69c2b068fc378daa952ba7f163c4a11628f55a4df523b3ef836040516113079190611a39565b60405180910390a361131b600083836114f1565b5050565b600073ffffffffffffffffffffffffffffffffffffffff168273ffffffffffffffffffffffffffffffffffffffff160361138e576040517f08c379a0000000000000000000000000000000000000000000000000000000008152600401611385906122fb565b60405180910390fd5b61139a826000836114ec565b60008060008473ffffffffffffffffffffffffffffffffffffffff1673ffffffffffffffffffffffffffffffffffffffff16815260200190815260200160002054905081811015611420576040517f08c379a00000000000000000000000000000000000000000000000000000000081526004016114179061238d565b60405180910390fd5b8181036000808573ffffffffffffffffffffffffffffffffffffffff1673ffffffffffffffffffffffffffffffffffffffff1681526020019081526020016000208190555081600260008282540392505081905550600073ffffffffffffffffffffffffffffffffffffffff168373ffffffffffffffffffffffffffffffffffffffff167fddf252ad1be2c89b69c2b068fc378daa952ba7f163c4a11628f55a4df523b3ef846040516114d39190611a39565b60405180910390a36114e7836000846114f1565b505050565b505050565b505050565b61150082826107d4565b6115775761150d8161157b565b61151b8360001c60206115a8565b60405160200161152c929190612481565b6040516020818303038152906040526040517f08c379a000000000000000000000000000000000000000000000000000000000815260040161156e9190611934565b60405180910390fd5b5050565b60606115a18273ffffffffffffffffffffffffffffffffffffffff16601460ff166115a8565b9050919050565b6060600060028360026115bb91906124bb565b6115c59190611d39565b67ffffffffffffffff8111156115de576115dd6124fd565b5b6040519080825280601f01601f1916602001820160405280156116105781602001600182028036833780820191505090505b5090507f3000000000000000000000000000000000000000000000000000000000000000816000815181106116485761164761252c565b5b60200101907effffffffffffffffffffffffffffffffffffffffffffffffffffffffffffff1916908160001a9053507f7800000000000000000000000000000000000000000000000000000000000000816001815181106116ac576116ab61252c565b5b60200101907effffffffffffffffffffffffffffffffffffffffffffffffffffffffffffff1916908160001a905350600060018460026116ec91906124bb565b6116f69190611d39565b90505b6001811115611796577f3031323334353637383961626364656600000000000000000000000000000000600f8616601081106117385761173761252c565b5b1a60f81b82828151811061174f5761174e61252c565b5b60200101907effffffffffffffffffffffffffffffffffffffffffffffffffffffffffffff1916908160001a905350600485901c94508061178f9061255b565b90506116f9565b50600084146117da576040517f08c379a00000000000000000000000000000000000000000000000000000000081526004016117d1906125d0565b60405180910390fd5b8091505092915050565b600080fd5b60007fffffffff0000000000000000000000000000000000000000000000000000000082169050919050565b61181e816117e9565b811461182957600080fd5b50565b60008135905061183b81611815565b92915050565b600060208284031215611857576118566117e4565b5b60006118658482850161182c565b91505092915050565b60008115159050919050565b6118838161186e565b82525050565b600060208201905061189e600083018461187a565b92915050565b600081519050919050565b600082825260208201905092915050565b60005b838110156118de5780820151818401526020810190506118c3565b60008484015250505050565b6000601f19601f8301169050919050565b6000611906826118a4565b61191081856118af565b93506119208185602086016118c0565b611929816118ea565b840191505092915050565b6000602082019050818103600083015261194e81846118fb565b905092915050565b600073ffffffffffffffffffffffffffffffffffffffff82169050919050565b600061198182611956565b9050919050565b61199181611976565b811461199c57600080fd5b50565b6000813590506119ae81611988565b92915050565b6000819050919050565b6119c7816119b4565b81146119d257600080fd5b50565b6000813590506119e4816119be565b92915050565b60008060408385031215611a0157611a006117e4565b5b6000611a0f8582860161199f565b9250506020611a20858286016119d5565b9150509250929050565b611a33816119b4565b82525050565b6000602082019050611a4e6000830184611a2a565b92915050565b600080600060608486031215611a6d57611a6c6117e4565b5b6000611a7b8682870161199f565b9350506020611a8c8682870161199f565b9250506040611a9d868287016119d5565b9150509250925092565b6000819050919050565b611aba81611aa7565b8114611ac557600080fd5b50565b600081359050611ad781611ab1565b92915050565b600060208284031215611af357611af26117e4565b5b6000611b0184828501611ac8565b91505092915050565b611b1381611aa7565b82525050565b6000602082019050611b2e6000830184611b0a565b92915050565b60008060408385031215611b4b57611b4a6117e4565b5b6000611b5985828601611ac8565b9250506020611b6a8582860161199f565b9150509250929050565b600060ff82169050919050565b611b8a81611b74565b82525050565b6000602082019050611ba56000830184611b81565b92915050565b600060208284031215611bc157611bc06117e4565b5b6000611bcf8482850161199f565b91505092915050565b60008060408385031215611bef57611bee6117e4565b5b6000611bfd8582860161199f565b9250506020611c0e8582860161199f565b9150509250929050565b7f4e487b7100000000000000000000000000000000000000000000000000000000600052602260045260246000fd5b60006002820490506001821680611c5f57607f821691505b602082108103611c7257611c71611c18565b5b50919050565b7f416363657373436f6e74726f6c3a2063616e206f6e6c792072656e6f756e636560008201527f20726f6c657320666f722073656c660000000000000000000000000000000000602082015250565b6000611cd4602f836118af565b9150611cdf82611c78565b604082019050919050565b60006020820190508181036000830152611d0381611cc7565b9050919050565b7f4e487b7100000000000000000000000000000000000000000000000000000000600052601160045260246000fd5b6000611d44826119b4565b9150611d4f836119b4565b9250828201905080821115611d6757611d66611d0a565b5b92915050565b7f43616c6c6572206973206e6f742061206d696e74657200000000000000000000600082015250565b6000611da36016836118af565b9150611dae82611d6d565b602082019050919050565b60006020820190508181036000830152611dd281611d96565b9050919050565b7f43616c6c6572206973206e6f742061206275726e657200000000000000000000600082015250565b6000611e0f6016836118af565b9150611e1a82611dd9565b602082019050919050565b60006020820190508181036000830152611e3e81611e02565b9050919050565b7f45524332303a2064656372656173656420616c6c6f77616e63652062656c6f7760008201527f207a65726f000000000000000000000000000000000000000000000000000000602082015250565b6000611ea16025836118af565b9150611eac82611e45565b604082019050919050565b60006020820190508181036000830152611ed081611e94565b9050919050565b7f45524332303a20617070726f76652066726f6d20746865207a65726f2061646460008201527f7265737300000000000000000000000000000000000000000000000000000000602082015250565b6000611f336024836118af565b9150611f3e82611ed7565b604082019050919050565b60006020820190508181036000830152611f6281611f26565b9050919050565b7f45524332303a20617070726f766520746f20746865207a65726f20616464726560008201527f7373000000000000000000000000000000000000000000000000000000000000602082015250565b6000611fc56022836118af565b9150611fd082611f69565b604082019050919050565b60006020820190508181036000830152611ff481611fb8565b9050919050565b7f45524332303a20696e73756666696369656e7420616c6c6f77616e6365000000600082015250565b6000612031601d836118af565b915061203c82611ffb565b602082019050919050565b6000602082019050818103600083015261206081612024565b9050919050565b7f45524332303a207472616e736665722066726f6d20746865207a65726f20616460008201527f6472657373000000000000000000000000000000000000000000000000000000602082015250565b60006120c36025836118af565b91506120ce82612067565b604082019050919050565b600060208201905081810360008301526120f2816120b6565b9050919050565b7f45524332303a207472616e7366657220746f20746865207a65726f206164647260008201527f6573730000000000000000000000000000000000000000000000000000000000602082015250565b60006121556023836118af565b9150612160826120f9565b604082019050919050565b6000602082019050818103600083015261218481612148565b9050919050565b7f45524332303a207472616e7366657220616d6f756e742065786365656473206260008201527f616c616e63650000000000000000000000000000000000000000000000000000602082015250565b60006121e76026836118af565b91506121f28261218b565b604082019050919050565b60006020820190508181036000830152612216816121da565b9050919050565b7f45524332303a206d696e7420746f20746865207a65726f206164647265737300600082015250565b6000612253601f836118af565b915061225e8261221d565b602082019050919050565b6000602082019050818103600083015261228281612246565b9050919050565b7f45524332303a206275726e2066726f6d20746865207a65726f2061646472657360008201527f7300000000000000000000000000000000000000000000000000000000000000602082015250565b60006122e56021836118af565b91506122f082612289565b604082019050919050565b60006020820190508181036000830152612314816122d8565b9050919050565b7f45524332303a206275726e20616d6f756e7420657863656564732062616c616e60008201527f6365000000000000000000000000000000000000000000000000000000000000602082015250565b60006123776022836118af565b91506123828261231b565b604082019050919050565b600060208201905081810360008301526123a68161236a565b9050919050565b600081905092915050565b7f416363657373436f6e74726f6c3a206163636f756e7420000000000000000000600082015250565b60006123ee6017836123ad565b91506123f9826123b8565b601782019050919050565b600061240f826118a4565b61241981856123ad565b93506124298185602086016118c0565b80840191505092915050565b7f206973206d697373696e6720726f6c6520000000000000000000000000000000600082015250565b600061246b6011836123ad565b915061247682612435565b601182019050919050565b600061248c826123e1565b91506124988285612404565b91506124a38261245e565b91506124af8284612404565b91508190509392505050565b60006124c6826119b4565b91506124d1836119b4565b92508282026124df816119b4565b915082820484148315176124f6576124f5611d0a565b5b5092915050565b7f4e487b7100000000000000000000000000000000000000000000000000000000600052604160045260246000fd5b7f4e487b7100000000000000000000000000000000000000000000000000000000600052603260045260246000fd5b6000612566826119b4565b91506000820361257957612578611d0a565b5b600182039050919050565b7f537472696e67733a20686578206c656e67746820696e73756666696369656e74600082015250565b60006125ba6020836118af565b91506125c582612584565b602082019050919050565b600060208201905081810360008301526125e9816125ad565b905091905056fea264697066735822122001ad80e342a54ab5333068b3e3ad656c808cce1b7da8bbbff4cbbcecd24a7bf564736f6c63430008110033",
  "linkReferences": {},
  "deployedLinkReferences": {}
}